:020000040800F2
:10000000800A0020550700089D010008A101000892
:10001000A5010008A9010008AD01000800000000CA
:10002000000000000000000000000000B101000816
:10003000B501000800000000B9010008BD0100087A
:100040006F0700086F0700086F0700086F070008B8
:100050006F0700086F0700086F0700086F070008A8
:100060006F0700086F0700086F0700086F07000898
:100070006F0700086F0700086F0700086F07000888
:100080006F0700086F0700086F0700086F07000878
:100090006F0700086F0700086F0700086F07000868
:1000A0006F0700086F0700086F0700086F07000858
:1000B0006F070008250600086F0700086F07000893
:1000C0006F0700086F0700086F0700086F07000838
:1000D0006F070008510600086F0700086F07000847
:1000E0006F0700086F0700086F0700086F07000818
:1000F0006F0700086F0700086F0700086F07000808
:100100006F0700086F0700086F0700086F070008F7
:100110006F0700086F0700086F0700086F070008E7
:100120006F0700086F0700086F0700086F070008D7
:100130006F0700086F0700086F0700086F070008C7
:100140006F0700086F0700086F0700086F070008B7
:100150006F0700086F0700086F0700086F070008A7
:100160006F0700086F0700086F0700086F07000897
:100170006F0700086F0700086F0700086F07000887
:100180006F0700086F070008DFF80CD006F04CF985
:100190000048004745030008800A0020704700BF60
:1001A000FEE700BFFEE700BFFEE700BFFEE700BFBF
:1001B000704700BF704700BF704700BF7047000026
:1001C00082B04EF6885CCEF2000CDCF8002043F6DC
:1001D000000142F47002C4F20201CCF800200A6867
:1001E0004FF6FF7042F001020A6000228A600B683D
:1001F000CFF6F6601840086043F21000C2F20040EB
:100200004860086820F480200860CA60019200926B
:10021000086840F480300860086800F400300090FE
:10022000019801300190009818B90198B0F5A04FDD
:10023000F2D10868800354BF00200120009000988C
:10024000012834D1086C40F08050086447F2000067
:10025000C4F20000026842F440420260886888608C
:10026000886840F400408860886840F4A050886046
:1002700045F20840C0F240704860086840F0807065
:10028000086000BF08688001FCD540F20570C1F825
:100290000004886820F003008860886840F002004D
:1002A000886000BF886800F00C000828FAD14FF081
:1002B00000604CF8800C02B0704700BF80B543F678
:1002C0000400C4F20200416801F00C0242F2004155
:1002D000082AC0F2F40106D0042A20D141F20021FC
:1002E000C0F27A011BE0D0F800C00368026803F096
:1002F0003F03C2F3881E5FEA4C2241F20022C0F2A3
:100300007A0258BF0A46B2FBF3F102680223C2F335
:1003100001420EFB01F103EB4202B1FBF2F140F2AC
:100320004802C2F200021160406847F69411C0F31F
:100330000310C0F60001085C116821FA00F010609B
:1003400080BD000094B048F2A0255420C4F242259C
:1003500002F07CFA42F2667002F01CFB02F09AFE98
:1003600005F0CCFB2020012101F0ECF902AE304673
:1003700000F0CCFF4FF4A060029040F2013042F256
:100380000004C0F20010C4F20104039004F57440AC
:10039000314600F077FF4FF0000B1C274FF08040F4
:1003A00040F2473163220023C5F808B0009702F0FD
:1003B00057FB04F5604002212246012302F090FB26
:1003C0004FF080400A2102F06FFC4DF20A71C3F633
:1003D000234104914FF07A5140F26848059143F26D
:1003E0003331C2F20008C4F20311C8F800004CF621
:1003F000CD40069141F26F21C3F6CC60C3F60341B4
:100400000290002007914EF68531C4F28810C3F6A1
:10041000D1610390CDE908104DF20A70C3F6A340F4
:100420000A900020C4F248309DED0B0A9DED0C1A95
:1004300010900020C4F2A01040F27C4930EE410A36
:100440000B90C2F2000920468DED0D0AC9F800603C
:1004500000F0BEFA9FED649A40F2784A40F270478D
:10046000B3EE0E8AC2F2000ABFEE00AAC2F2000783
:1004700068A56AA6B7EE00BA51E000BFD9F800003F
:1004800090ED091A31EE000A80ED090A97ED000A95
:10049000CAF800B0BDEEC00A10EE100A002848BF2E
:1004A000404200EE100AB8EEC00A002000214FA220
:1004B0008DED0C0A03F018FC97ED000A4020BDEE0C
:1004C000C00A002108224CA38DED000A03F064FC51
:1004D000D8F80000102184680020082248A3009466
:1004E00003F05AFC0020202147A203F0FDFB9DED04
:1004F0000B0A4020BDEEC00A10EE104A202108224F
:100500002B46009403F048FCDAF80040002030212C
:1005100008223346009403F03FFC02F02DFE05F064
:1005200097FF9DED0B0AB4EE480AF1EE10FA0BDDD1
:10053000B4EE480AF1EE10FA14DDB4EE490AF1EE19
:1005400010FA0FDA02A813E005A890EC030A02A83B
:1005500002F0F0FB48F2A020C4F242200121016029
:100560000BE000BFB4EE490AF1EE10FA05DB08A873
:1005700090EC030A02A802F0DDFB9DED120AD8F808
:100580000010BCEEC00A4FF0804081ED020A01F07D
:1005900035FBDAF80000B0EE4A0A0E2803D00D2829
:1005A00009D1B0EE4B0AD9F8000090ED091A31EEEE
:1005B000000A80ED090ACAF800B005F0D5FACAF8B9
:1005C000000000BF05F0D0FA0028FBD1DAF80000E7
:1005D000B0EE4A0A0E283FF451AF0D287FF456AF13
:1005E000B0EE4B0A4AE700BF00004842B5B1C7B0C1
:1005F000BDC7B6C8000000003A2534640000000002
:1006000050574D3A25346400D6B8B6A8BDC7B6C811
:10061000000000003A253264000000006B65793A62
:100620002534640010B540F20044C4F200042046B2
:10063000012101F041FE012803D12046002101F0F3
:10064000D3FA20460121BDE8104001F041BE00BFB1
:1006500010B541F20004C4F20104204640F22551D5
:1006600002F0D4F801280DD1204602F037F800EE50
:10067000100A40F27C40C2F200000068B8EE400A66
:1006800080ED090A204640F22551BDE8104002F0F5
:10069000D5B800BF10B540F27040C2F2000090ED36
:1006A000000A41F20004BDEEC00AC4F2010410EEDB
:1006B000100A81B2204602F00DF848F22420C4F25C
:1006C000402000BF01680029FCD040F26442C2F221
:1006D00000021068431D5F2840F26840C2F200002B
:1006E0000068C8BF3223018920461360BDE810406E
:1006F00001F0F0BF10B540F27040C2F2000090ED82
:10070000000A41F20004BDEEC00AC4F2010410EE7A
:10071000100A81B2204601F0DDFF48F22020C4F229
:10072000402000BF01680029FCD040F26442C2F2C0
:1007300000021068431F40F26840C2F200000068E7
:10074000B8BF3223018920461360BDE8104001F094
:10075000C1BF00000648804706480047FEE7FEE7A5
:10076000FEE7FEE7FEE7FEE7FEE7FEE7FEE7FEE761
:10077000C10100088901000840F080604EF60C516C
:1007800040F0FD70CEF200010860704710B5C178EE
:1007900000294EF20011CEF200011CD04EF60C5290
:1007A000CEF200021268072323EA12220F23C2F1BD
:1007B000040C23FA02FE427884785FFA8CF390F8F6
:1007C00000C09A4004EA0E031A43120101EB0C0325
:1007D00083F8002300E080310078012300F01F023D
:1007E00003FA02F2C0F3421041F8202010BD00BF0E
:1007F0004FF68072C1F6FF72114008434EF6085161
:10080000CEF200010860704700294EF61051CEF27A
:1008100000010A680CBF22EA00001043086070471C
:100820004EF21001CEF200010A68042822F0040200
:1008300008BF04320A60704780B54FF48070012110
:1008400000F0ECFF4FF480700021BDE8804000F024
:10085000E5BF00BF10B542684FF6FF63CFF6FF4318
:1008600002EA030C0B680A7943EA0C0343EA02220A
:10087000426082684FF2FD73CCF2FF0302EA030E7E
:100880000A69D1E902C342EA0E024C791A4342EAEC
:100890000C0242EA44028260C26A097D22F47002BC
:1008A0000139C9B242EA0151C16210BD00210160A3
:1008B0008180C0E90211016101210175704700BF0B
:1008C00080B542F2043CC4F2010CDCF8002043F293
:1008D000E003CFF6FC7302EA030ED0E90031D0E961
:1008E000022043EA0E03194311430843CCF80000E9
:1008F00080BD00BF0021C0E90011C0E902117047AE
:100900008268002922F0010218BF0132826070471C
:1009100042684FF6FF53CFF63F731A4011434160D0
:10092000704700BF41628262704700BF426822F098
:100930001F0211434160704742F20431C4F20101C9
:100940000A68002822F4000218BF02F500020A60BB
:10095000704700BF42F20431C4F201010A68002866
:1009600022F4800218BF02F580020A60704700BFBF
:10097000B0B501EB410C4FF0100E092988BFACF166
:100980001E0C88BF4FF00C0E50F80E40072505FADC
:100990000CF5AC4303FA0CF3234340F80E30062A5F
:1009A00002EB820303D834306FF0040207E00C2A14
:1009B00087BF2C306FF0400230306FF022021A44B3
:1009C00003681F259540AB43914019430160B0BDBA
:1009D000816841F080418160704700BF8068C0F34A
:1009E000807070478268002922F4806218BF02F587
:1009F00080628260704700BF8268002922F0020294
:100A000018BF02328260704742684EF20003CFF690
:100A1000FF7322F4604203EB4131114341607047A0
:100A20004268002922F4006218BF02F500624260A9
:100A3000704700BFC06C80B2704700BF42F2083000
:100A4000C4F20100006870478268002922F48072B5
:100A500018BF02F580728260704700BF826800296B
:100A600022F4007218BF02F500728260704700BF66
:100A700042F20431C4F201010A68002822F4005253
:100A800018BF02F500520A60704700BFB0B501EB15
:100A9000410C4FF0100E092988BFACF11E0C88BF25
:100AA0004FF00C0E50F80E40072505FA0CF5AC433C
:100AB00003FA0CF3234340F80E30836BFC2565EA00
:100AC00013552A440332D5B2AD0055FA82F21F25E0
:100AD0009540AB43914019438163B0BD826B0023C5
:100AE000CFF6F07322F4401203EB015111438163FE
:100AF000704700BF81B00023009300900098084425
:100B000000900098026001B0704700BF826822F434
:100B10007022114381607047826822F440121143B1
:100B200081607047816841F480018160704700BF37
:100B30008068C0F3805070474268002922F48062C8
:100B400018BF02F580624260704700BF426800290A
:100B500022F4805218BF02F580524260704700BFF5
:100B600081B0002200920090009808442830009044
:100B70000098006880B201B0704700BFC9B201237D
:100B800003FA01F1002A42680CBF22EA0101114375
:100B9000416070470068084018BF0120704700BFDF
:100BA000C9430160704700BF42680068CBB200EAE9
:100BB0001120002818BF012022FA03F108407047D5
:100BC0006FEA11210160704780B54FF0005001219C
:100BD00000F018FE4FF000500021BDE8804000F00A
:100BE00011BE00BF10B547F2004CC4F2000CDCF897
:100BF000003040F6FE72824023EA020ED1E9003254
:100C0000D1E902411A432243114301FA00F040EABC
:100C10000E00CCF8000010BD0021C0E90011C0E9B1
:100C20000211704747F200420123C4F2000203FAA6
:100C300000F0002911680CBF21EA00000843106091
:100C4000704700BF47F2044200090123C4F20002CA
:100C500003FA00F0002911680CBF21EA00000843E4
:100C60001060704747F20441C4F200010A6800288E
:100C700022F0030218BF03320A60704747F20043B4
:100C8000C4F2000301FA00F0002A19680CBF21EA3F
:100C9000000008431860704781B00022009247F2BC
:100CA0000042C4F200020092009A10440830009002
:100CB0000098016001B0704781B00022009247F2B5
:100CC0000042C4F200020092009A104414300090D6
:100CD0000098016001B070470346082818BF102330
:100CE0009940114347F22042C4F2000281507047FC
:100CF00081B00021009147F20041C4F2000100914F
:100D0000009901EB90002C3000900098006880B2B0
:100D100001B0704747F200424FF48053C4F2000222
:100D200003FA00F0002911680CBF21EA0000084313
:100D30001060704747F20043C4F2000301FA00F06C
:100D4000002A19680CBF21EA0000084318607047A8
:100D500047F23442C4F20002126801FA00F0104077
:100D600018BF0120704700BF01FA00F047F234417C
:100D7000C4F200010860704747F20042C4F200026A
:100D8000136801FA00F0516B03EA0002084018BF33
:100D90000120002A18BF01221040704701FA00F01C
:100DA00047F23441C4F2000108607047016821F045
:100DB000010101600021016041608160C160016149
:100DC00046F20F41C4F2020188424FF02101416115
:100DD00022DC46F26F01C4F20201884240DC46F296
:100DE0003F01C4F2020188426FDC46F21001C4F2F6
:100DF0000201884200F0C28046F22801C4F20201DA
:100E0000884201BF46F20800C4F202004FF4746148
:100E1000016008BF7047F4E046F26F41C4F202017E
:100E2000884238DC46F23F41C4F20201884262DC6B
:100E300046F21041C4F20201884200F0A68046F258
:100E40002841C4F20201884201BF46F20800C4F200
:100E500002004FF47461C0F8001408BF7047D0E07E
:100E600046F29F01C4F2020188425BDC46F2700147
:100E7000C4F20201884200F0908046F28801C4F278
:100E80000201884240F0BD8046F20800C4F2020030
:100E900040F6407186E046F29F41C4F2020188426A
:100EA00056DC46F27041C4F2020188427ED046F21E
:100EB0008841C4F20201884218BF704746F20C40D4
:100EC000C4F2020040F6407175E046F24001C4F2FF
:100ED0000201884273D046F25801C4F202018842EE
:100EE00001BF46F20800C4F202004FF074610160D5
:100EF00008BF704785E046F24041C4F202018842D3
:100F000065D046F25841C4F20201884201BF46F260
:100F10000800C4F202004FF07461C0F8001408BF6A
:100F200070476EE046F2A001C4F20201884257D039
:100F300046F2B801C4F20201884201BF46F208003D
:100F4000C4F202004FF03D51416008BF704758E0C5
:100F500046F2A041C4F2020188424AD046F2B841AA
:100F6000C4F20201884201BF46F20C40C4F2020002
:100F70004FF03D51016008BF704742E046F2080063
:100F8000C4F202003D210160704746F20800C4F23D
:100F900002003D21C0F80014704746F20800C4F278
:100FA00002003D21C2F200014160704746F20C4050
:100FB000C4F202003D21C2F200010160704746F216
:100FC0000800C4F202004FF474110160704746F249
:100FD0000800C4F202004FF47411C0F80014704706
:100FE00046F208000021C4F20200C2F23D01416055
:100FF000704746F20C400021C4F20200C2F23D01EB
:10100000016070472DE9F04F026848F23F03CFF2CC
:101010001C03D1F800901A40D1E9038E01F1140CA1
:101020009CE8F01042EA090242EA080222432A43FD
:1010300032438B6A3A43D1E90DAB42EA0C021A43C0
:1010400042EA0A0242EA0B0202604269D1E90B3726
:1010500022F007021A433A434261C0F804E04A68AA
:1010600082608968C160BDE8F08F00BF80B53C2117
:1010700004F0DDFD80BD00BF0268002922F00102FE
:1010800018BF0132026070470268002922F4004252
:1010900018BF02F500420260704700BF02680029D5
:1010A00022F0200218BF2032026070474160704772
:1010B000406880B2704700BF0368002A23F4002311
:1010C00018BF03F50023036001617047026800291F
:1010D00022F4802218BF02F580220260704700BF10
:1010E0001023002A08BF0C23C15070470068C0F3CA
:1010F000C0407047006800F001007047406900F090
:101100003800704780B546F20442C4F2020246F24B
:10111000000C02F10C0EC4F2020C0CF58063704559
:101120003EBF46F20003C4F202030CF10402880041
:1011300058BF1A461068084040F67D71C0F67D71B0
:10114000084018BF012080BD10B546F20C4340F6A0
:101150007D7EC4F2020346F20802C0F67D7EC4F230
:10116000020203F1040C8C0001EA0E0105D4604573
:1011700028BF02F58062116010BD604538BF131DA5
:10118000196010BD0B0606D54369002A23F08003C1
:1011900018BF80334361802908BF704701F01E01EA
:1011A000002A02680CBF22EA010111430160704766
:1011B000B0B540F63C7CC0F63C7C11EA0C0F04D084
:1011C0001E23026803EAD12301E0436980221A400A
:1011D00046F2044346F20004C4F20203C4F20204DD
:1011E00003F10C0E04F5806570453EBF46F2000524
:1011F000C4F20205231D880058BF2B4618680CF165
:1012000041131940084018BF0120002A18BF0122CD
:101210001040B0BD10B546F20C4340F67D7EC4F2DE
:10122000020346F20802C0F67D7EC4F2020203F118
:10123000040C8C0001EA0E0105D4604528BF02F5BC
:101240008062116010BD604538BF131D196010BD6C
:1012500000F13E4000F1FF704FEAB0200A2888BF3D
:10126000704710B547F66811C0F6000151F82040EC
:101270000121204600F0A2FA20460021BDE81040DE
:1012800000F09CBA2DE9F041D1F8008000234FF026
:10129000030C4FF0010E00240FE000BFC268AA4308
:1012A000C260CA79C5689A402A43C2600134102CD2
:1012B00003F1020308BFBDE8F08128FA04F5ED0749
:1012C000F4D006680CFA03F5AE4306600E790768A1
:1012D00006FA03F2013E3A43012E0260DED882682C
:1012E000EE43324082604A798E7987689A403A4369
:1012F000826042680EFA04F7BA43426006FA04F2CA
:10130000466892B232434260C8E700BF4FF6FF71B1
:101310000022C0E90012704781B04FF48032009281
:10132000009A0A430092009AC261C1610099C161AA
:10133000C1690091C069009001B070470069084020
:1013400018BF0120704700BF006980B2704700BF1E
:101350004069084018BF0120704700BF406980B253
:10136000704700BF0183704741837047002A0CBF5C
:1013700041830183704700BF41617047426951401A
:10138000416170471C2303EA810C6FF0030303EAF9
:10139000510108440F23016A03FA0CF399430162D7
:1013A000016A02FA0CF211430162704743F6000031
:1013B000C4F2020001684FF6FF7341F001010160C1
:1013C000002181600268CEF6F6231A40026043F2E3
:1013D0001002C2F20042426043F20002C2F2000276
:1013E000C0F8842002F18062C0F88820026822F4EC
:1013F00080220260C160C0F88C10704743F6020181
:10140000C4F2020100220A700870704781B043F6EE
:101410000000C4F202000021009100BF0168009AA0
:1014200001320092009AB2F5A04F02D011F40031BF
:10143000F4D00068C0F3404001B07047420943F661
:101440000001012AC4F2020103D0022A14BF743140
:101450007031096800F01F0021FA00F000F001006F
:10146000704700BF43F60001C4F202010A6822F08F
:10147000F80242EAC0000860704700BF0021C4F2D1
:1014800047210860704700BF43F67001C4F20201B3
:10149000002201280A700A7003D0042818BF704780
:1014A00005200870704700BF40F68061C4F24721F4
:1014B0000860704780B5DDF808C04FEAC33E4FF6BC
:1014C000FF7308432EEA030340EA8210A3F580333A
:1014D00040EA0C6043F604011843C4F202010860BC
:1014E00080BD00BF6021C4F247210860704700BF83
:1014F000090741EA801043F68401C4F20201086042
:10150000704700BF6821C4F247210860704700BFE0
:10151000090641EA801043F6880140EA0270C4F2ED
:1015200002010860704700BF7021C4F247210860C3
:10153000704700BF4C21C4F247210860704700BFCC
:1015400043F60802C4F202021368084323F0EC6376
:1015500018431060704700BF43F60802C4F202024D
:101560001368084323F0784318431060704700BFA6
:1015700043F60801C4F202010A6822F00302104394
:101580000860704743F60800C4F20200006800F0EB
:101590000C00704743F60801C4F202010A6822F009
:1015A000F00210430860704743F60801C4F20201DC
:1015B0000A6822F4E05210430860704743F60801BD
:1015C000C4F202010A6822F4604242EAC0000860E4
:1015D000704700BF10B543F60401C4F202014A6827
:1015E00002F00C0342F20042082BC0F2F40206D0D3
:1015F000042B20D141F20022C0F27A021BE0D1F884
:1016000000C0D1F800E00B680EF03F0EC3F3881461
:101610005FEA4C2341F20023C0F27A0358BF13461D
:10162000B3FBFEF20B686243C3F30143022404EBF5
:101630004303B2FBF3F202604A6847F6A413C2F315
:101640000312C0F600039A5C046824FA02F24260B6
:101650004C68C4F382241C5D22FA04F48460496857
:10166000C1F34231595C22FA01F1C16010BD00BFE3
:1016700000F44071B1F5407F43F60801C4F2020165
:1016800009D10A684FF6FF43C0F6FF7322F4F8123F
:1016900003401A430A608A6E6FF31F301043886656
:1016A000704700BF40F63C61C4F2472108607047B4
:1016B00040F64061C4F247210860704740F25C1177
:1016C000C4F247210860704743F68C01C4F202015E
:1016D0000A68013822F01F0210430860704700BFFB
:1016E00043F68C01C4F202010A686FF0FF0322F492
:1016F000F85203EB002010430860704743F68C015A
:10170000C4F202010A6822F44012104308607047D4
:1017100043F68C01C4F202010A6822F4400210432D
:101720000860704743F68C01C4F202010A6822F493
:10173000403210430860704741F2E011C4F2472183
:1017400008607047002943F63001C4F202010A68BC
:101750000CBF22EA0000104308607047002943F6DE
:101760003401C4F202010A680CBF22EA00001043EF
:1017700008607047002943F63801C4F202010A6884
:101780000CBF22EA0000104308607047002943F6AE
:101790004001C4F202010A680CBF22EA00001043B3
:1017A00008607047002943F64401C4F202010A6848
:1017B0000CBF22EA0000104308607047002943F67E
:1017C0001001C4F202010A680CBF22EA00001043B3
:1017D00008607047002943F61401C4F202010A6848
:1017E0000CBF22EA0000104308607047002943F64E
:1017F0001801C4F202010A680CBF22EA000010437B
:1018000008607047002943F62001C4F202010A680B
:101810000CBF22EA0000104308607047002943F61D
:101820002401C4F202010A680CBF22EA000010433E
:1018300008607047002943F65001C4F202010A68AB
:101840000CBF22EA0000104308607047002943F6ED
:101850005401C4F202010A680CBF22EA00001043DE
:1018600008607047002943F65801C4F202010A6873
:101870000CBF22EA0000104308607047002943F6BD
:101880006001C4F202010A680CBF22EA00001043A2
:1018900008607047002943F66401C4F202010A6837
:1018A0000CBF22EA000010430860704743F6700145
:1018B000C4F202010A68012822F0080208BF0832B7
:1018C0000A607047002943F60D01C4F202010A784C
:1018D0000CBF22EA000010430870704743F6740002
:1018E000C4F20200016841F080710160704700BFDE
:1018F00043F60C01C4F202010968084018BF012038
:10190000704700BF43F60E01C4F202010870704731
:1019100080B541F6FF31C4F2000188421FDC40F679
:10192000FF31C4F2000188423ADD41F2FF31C4F2D6
:101930000001884261DC40F60041C4F200018842A7
:1019400000F0828041F20001C4F20001884240F0C0
:10195000B78010200121FFF755FF10209FE040F2D3
:10196000FF31C4F20101884230DD44F2FF31C4F29C
:101970000101884253DC40F20041C4F20101884277
:1019800068D044F20001C4F20101884240F098801E
:101990004FF480300121FFF741FF4FF480308AE09F
:1019A000B0F1804F5CD040F20041C4F200018842A7
:1019B0005CD040F60001C4F20001884240F0808013
:1019C00004200121FFF71EFF042068E041F60041DA
:1019D000C4F2000188424FD042F20001C4F200017B
:1019E00088424FD00021C4F20101884268D1012011
:1019F0000121FFF713FF01205DE041F20041C4F235
:101A00000001884246D041F60001C4F2000188423C
:101A100056D140200121FFF7F5FE40203FE044F27F
:101A20000041C4F2010188423ED044F60001C4F2F4
:101A30000101884218BF80BD4FF480200121FFF7CB
:101A4000EDFE4FF4802036E008200121FFF7DAFE9A
:101A5000082024E002200121FFF7E0FE02202AE016
:101A600001200121FFF7CEFE012018E00220012114
:101A7000FFF7C8FE022012E080200121FFF7C2FE1E
:101A800080200CE04FF480700121FFF7BBFE4FF483
:101A9000807004E020200121FFF7B4FE2020002107
:101AA000BDE88040FFF7AEBE4FF400300121FFF7E4
:101AB000B5FE4FF400300021BDE88040FFF7AEBE18
:101AC00080BD00BF10B540F6FF32B0F800E0C4F2B0
:101AD000000240F2004C9042C4F2010C0FDCB0F165
:101AE000804F19D040F20042C4F20002904213D05D
:101AF00040F60002C4F2000290420DD011E040F620
:101B00000042C4F20002904206D0604504D0002298
:101B1000C4F20102904204D14A882EF0700342EAD6
:101B2000030E41F2004340F48062C4F200039A4283
:101B300004D00C892EF4407344EA030EA0F800E0B0
:101B40004B686245C3620B88038504BF897A0186AE
:101B50000121818210BD00BF4FF0FF310022C0E99A
:101B6000002102818272704701858282704700BF26
:101B7000028822F070021143018070474162704771
:101B8000C1627047406A7047008D70470288002923
:101B900018BF012122F0020242EA41010180704790
:101BA0000288002918BF012122F0040242EA8101C3
:101BB000018070470288002918BF012122F08002AD
:101BC00042EAC11101807047028822F008020280B7
:101BD0000288114301807047028822F4407202801B
:101BE00002881143018070470288002918BF012133
:101BF00022F0010211440180704700BFB0B5028C91
:101C000040F2004522F001020284038C40F480641B
:101C1000C4F201058288B0F818C0AC428C8923F068
:101C200002034D88B1F800E043EA040343EA0503E8
:101C30000DD1CC8923F00C0324F004048D882343B8
:101C40000C8A2B4322F440724D8A22432A432CF003
:101C5000730545EA0E058280058389684163038424
:101C6000B0BD00BFB0B5028C40F2004522F01002BA
:101C7000028440F48064C4F20105038C8288B0F8C9
:101C800018E0AC428C894D88B1F800C023F02003E5
:101C900044EA050443EA041311D1CC896FF04005EE
:101CA00023F0C00305EA04148D88234343EA051397
:101CB0000C8A4D8A22F440622C4342EA84022EF4BC
:101CC000E64545EA0C2582800583896881630384A3
:101CD000B0BD00BFB0B5028C40F2004522F4807266
:101CE000028440F48064C4F20105038C8288B0F859
:101CF0001CE0AC428C894D88B1F800C023F400731D
:101D000044EA050443EA042311D1CC8940F2FF459B
:101D1000240223F44063AC438D88234343EA052324
:101D20000C8A4D8A22F440522C4342EA04122EF0CF
:101D3000730545EA0C05828085838968C163038445
:101D4000B0BD00BFF0B5028C40F2004722F48052D3
:101D50000284038C8288B0F81CE0B1F800C08C8942
:101D60004D8840F48066C4F20107BE4204D10E8A59
:101D700022F4804242EA86122EF4E64747EA0C2714
:101D80008280878323F400532C43896843EA04321A
:101D900001640284F0BD00BF002101608180C0E9C0
:101DA00002110161704700BF10B54FF0010C048CA7
:101DB0000CFA01F324EA03036FF0080400F1180E93
:101DC000214203840DD0081F80B241085EF8013023
:101DD00048F6FF740EEB5000234012024EF801301B
:101DE00009E04B080EEB510053F80E104FF68F74BC
:101DF000214043F80E10016892B21143016010BDFA
:101E00004163704781637047C163704701647047E5
:101E1000028B22F07002114301837047028B22F47F
:101E2000E04242EA01210183704700BF828B22F029
:101E30007002114381837047828B22F4E04242EAB0
:101E400001218183704700BF028B22F008021143F9
:101E500001837047028B22F4006242EA0121018370
:101E6000704700BF828B22F00802114381837047C4
:101E7000828B22F4006242EA01218183704700BF15
:101E8000028B22F00402114301837047028B22F47B
:101E9000806242EA01210183704700BF828B22F0F9
:101EA0000402114381837047828B22F4806242EAEC
:101EB00001218183704700BF028B22F08002114311
:101EC00001837047028B6FF3DF3242EA0121018305
:101ED000704700BF828B22F08002114381837047DC
:101EE000828B6FF3DF3242EA01218183704700BFAA
:101EF000028C22F00202114301847047028C22F00E
:101F00000802114301847047028C22F0200242EA49
:101F100001110184704700BF028C22F0800242EA66
:101F200001110184704700BF028C22F4007242EA62
:101F300001210184704700BF028C22F4006242EA52
:101F400001210184704700BF028C22F4005242EA52
:101F500001310184704700BF80B54FF0010CB0F82B
:101F600020E00CFA01F32EEA03030384038C02FA47
:101F700001F11943018480BD80B54FF0040CB0F825
:101F800020E00CFA01F32EEA03030384038C02FA27
:101F900001F11943018480BD70B50A88082A23D055
:101FA000042A40D0002A61D1B1F802C0B1F804E09F
:101FB0000B89028C4EEA031322F0010202840246CE
:101FC00032F8184F058C24F0F30425F00A0545EA91
:101FD0000C05234345F0010513800584C88811884A
:101FE00021F00C01118064E0B1F802C08E880D89E7
:101FF000028C46EA051622F480720284024632F808
:102000001C4F038C24F0F30423F4306343EA0C23C5
:10201000264343F4807316800384C888118821F016
:102020000C01118045E0B1F802C0B1F804E00C8960
:10203000028C40F6FF4622F010020284024632F87B
:10204000183F058C334025F0A00643EA043346EAE6
:102050000C1643EA0E2346F0100613800684C88847
:102060001188000221F44061118022E0B1F802C021
:10207000B1F804E00D89028C40F6FF4622F480524C
:102080000284024632F81C4F038C2D03344045EA8B
:102090000E2644F6FF752B4043EA0C33264343F4E7
:1020A000805316800384C8881188000221F440619F
:1020B000118011880843108070BD00BF028B22F090
:1020C0000C020283028B114301837047028B22F4BE
:1020D00040620283028B42EA01210183704700BF04
:1020E000828B22F00C028283828B114381837047A2
:1020F000828B22F440628283828B42EA01218183B7
:10210000704700BF002101220160426001817047D9
:10211000F0B54B888C880127B3FA83F2012C08BFF5
:1021200002270E885209B1F808E0058C4FEA420CEC
:10213000A6B325F010020284028B40F6FF46058C00
:10214000324042EA0E3242EA042225F0A00444EA78
:10215000031343F0100302830384C988028B22F423
:1021600040620283028B42EA01220283028C22F047
:1021700001020284028B038C22F0F30223F00A0393
:1021800042EA0E1243EA0C033A4443F0010302838D
:102190000384028B22F00C02028332E025F001025C
:1021A0000284028B058C22F0F30242EA0E122243D3
:1021B00025F00A04234343F0010302830384C98802
:1021C000028B40F6FF4422F00C020283028B0A438A
:1021D0000283028C090222F010020284028B038C1B
:1021E000224023F0A00342EA0E3243EA0C1342EAF3
:1021F000072243F0100302830384028B22F440621F
:102200000283028B11430183F0BD00BF406B704716
:10221000806B7047C06B7047006C7047B1F800C0AE
:102220004B888A8843EA0C0343EA020CCB880A896C
:1022300043EA0C031A434B8989891A431143A0F8D6
:1022400044107047002181818160416001607047C6
:10225000B0F84420002918BF01216FF3DF3242EAB1
:10226000C131A0F8441070478288002918BF0121AD
:1022700022F0040242EA81018180704782880029AD
:1022800018BF012122F0010211448180704700BF74
:10229000002A82890CBF22EA010111438181704723
:1022A00081827047008A084018BF0120704700BF34
:1022B000C9430182704700BF028A80890A4000EA50
:1022C000010018BF0122002818BF012010407047EC
:1022D000C9430182704700BF1143A0F848107047FE
:1022E000002A82890CBF22EA0101114381817047D3
:1022F0008288002918BF012122F0080242EAC101A8
:1023000081807047018921F007010181704700BF7A
:10231000028922F0700211430181018941F0070115
:1023200001817047028922F07002114301817047D8
:1023300010B5B0F820C0602916D12CF0100CA0F810
:1023400020C0B0F818C0B0F820E040F6FF4404EA1E
:102350000C0444EA03332EF0A00444EA021203F50D
:10236000807342F0100210E02CF001040484048B0E
:10237000B0F820C024F0F20444EA03132CF00A045D
:10238000224343F0010342F00102038302840289E5
:1023900022F0700211430181018941F0070101819E
:1023A00010BD00BFB0F808C011435FFA8CFC41EAD1
:1023B000032141EA0C010181018941F0770101818A
:1023C000704700BFB0F808C011435FFA8CFC41EAC7
:1023D000032141EA0C010181704700BFB0F808C039
:1023E00011435FFA8CFC41EA032141EA0C010181AF
:1023F000018941F480410181704700BF828822F049
:10240000700282808288114381807047028922F0A5
:10241000070202810289114301817047028922F07B
:10242000800202810289114301817047B0B5B0F882
:1024300008C0B0F818E0058C2CF0070421434FF6D3
:10244000FC4404EA0E0425F0220542EA031204F2D9
:1024500001142A43018104830284B0BD82880029CB
:1024600018BF012122F0800242EAC1118180704729
:10247000A0F850107047000080B547F2FF71C4F219
:102480000001884219DC44F6FF31C4F200018842A1
:102490002DDC44F20041C4F2000188424ED044F6E3
:1024A0000001C4F2000188426ED14FF48020012166
:1024B000FFF7A8F94FF4802057E040F6FF71C4F20F
:1024C0000101884227DC47F60001C4F2000188427E
:1024D0003CD047F60041C4F20001884254D14FF08D
:1024E00000400121FFF78EF94FF000403DE044F637
:1024F0000041C4F20001884230D045F20001C4F22C
:102500000001884240D14FF480100121FFF77AF991
:102510004FF4801029E041F20041C4F201018842E9
:1025200028D041F20001C4F20101884218BF80BDE9
:1025300010200121FFF772F9102020E04FF4003045
:102540000121FFF75FF94FF400300EE04FF08040BB
:102550000121FFF757F94FF0804006E04FF40020CB
:102560000121FFF74FF94FF400200021BDE8804022
:10257000FFF748B920200121FFF750F92020002162
:10258000BDE88040FFF74AB980BD00BF70B584B098
:102590000446008A0D46C98820F440500843208232
:1025A000A0894EF6F3110840A9882A896B8908434F
:1025B00010431843A081A08AA98920F440700843E1
:1025C0006E46A0823046FFF705F841F2004144F420
:1025D0008060C4F20101884214BF06F1080006F1D0
:1025E0000C000068B4F90C100122B1F1FF3FC8BF24
:1025F00002222B681921484303FA02F1B0FBF1F0E3
:1026000048F21F51C5F2EB11A0FB01235A096FF0EC
:10261000630302FB0300B4F90C300326B3F1FF3F60
:10262000C8BF042600FA06F000F13200A0FB010149
:102630004FF00700C8BF0F2000EA511040EA021017
:10264000208104B070BD00BF4FF4165100224FF43A
:10265000402380E80E008281704700BF80B5028A67
:102660000B8822F4706C4A88B1F804E043EA0C034A
:10267000C9881A4342EA0E021143018280BD00BF9D
:1026800000214160016070478289002918BF012143
:1026900022F4005242EA413181817047028B22F0DC
:1026A000FF020283028B1143018370478289002954
:1026B00018BF01216FF3DF3242EAC13181817047D7
:1026C000828A002918BF012122F4006242EAC12156
:1026D000818270476FF35F218180704780886FF33C
:1026E0005F207047028A22F00F020282028A1143A1
:1026F000018270478289002918BF012122F002025D
:1027000042EA410181817047828922F4006282811C
:102710008289114381817047028A22F0200202825D
:10272000028A114301827047028A002918BF0121E1
:1027300022F4804242EA813101827047818941F06E
:1027400001018181704700BF828A002918BF0121E1
:1027500022F0080242EAC10181827047028BD2B2A4
:102760000283028B42EA012101837047828A002999
:1027700018BF012122F0200242EA411181827047F4
:10278000828A002918BF012122F0100242EA0111B9
:1027900081827047828A22F004028282828A1143F7
:1027A00081827047828A002918BF012122F002022B
:1027B00042EA410181827047002A828A0CBF22EAE4
:1027C0000101114381827047C1F3421301F01F0CD4
:1027D0001421022B08BF1021012B4FF0010308BF69
:1027E0000C21002A03FA0CF243580CBF23EA020220
:1027F0001A434250704700BF0088084018BF0120AC
:10280000704700BFC9430180704700BFC1F3421247
:10281000022A06D0012A14BF00F1140200F10C02B2
:1028200001E000F110021288008801F01F03090A7C
:10283000DA40C840104000F001007047090A012248
:1028400002FA01F1C94301807047000010B5044647
:102850006FF00400FDF7E4FF40F27641E008C2F2B9
:10286000000108704FF47A71484340F27441C2F29B
:102870000001088010BD00BF40F27641C2F20001A5
:102880000A784EF21001CEF2000150434860002059
:102890008860086840F00100086000BF086800F028
:1028A00001100128FAD0086820F00100086000201B
:1028B0008860704740F27441C2F200010A884EF20B
:1028C0001001CEF200015043486000208860086883
:1028D00040F00100086000BF086800F00110012806
:1028E000FAD0086820F00100086000208860704776
:1028F00010B547F65D124243130E4FF407724EF2C5
:10290000100103FB120E40F2744CCEF20001C2F231
:10291000000C16D0BCF80000424300204A608860DA
:102920000C6844F001040C600C6804F00114012CE4
:10293000FAD00C68013B24F001040C601C0688608E
:10294000ECD15FEA0E4008BF10BDBCF800001FFAD2
:102950008EF25043486000208860086840F0010013
:10296000086000BF086800F001100128FAD008686C
:1029700020F0010008600020886010BD704700BF93
:1029800041F20001C4F201010A885206FCD5C2B22C
:102990008A80704770B588B0054601200121FEF796
:1029A000D1FE10200121FEF7FDFE41F20004C4F229
:1029B000010404F57046304609210722FEF7E2FCC7
:1029C00030460A210722FEF7DDFC4FF4C060069076
:1029D00040F20220C0F20010079006A93046FEF730
:1029E00051FC00204FF4402103900491ADF81400F5
:1029F00002A920460295FFF7C9FD20460121FFF7F5
:102A000043FE204640F225510122FFF7DDFE40F251
:102A10002530C0F20310019001A8FDF7B7FE08B001
:102A200070BD0000A0F18040A0F580604FEAB020AA
:102A300007288FBF012048F26031C0F6000151F82D
:102A40002000704742F20012C4F201024FF480717C
:102A5000904208BF4FF4007108467047704700BFAE
:102A60002DE9F04184B00446A0F18040A0F58060DB
:102A7000DDF828804FEAB0201D46164607280F468D
:102A800006D848F26031C0F6000151F8200000E09D
:102A900001200121FEF77AFE0020ADF80600ADF816
:102AA0000C0001A92046ADF804700296FFF70AF861
:102AB000204601212A46FFF7EBFB4FF48170ADF869
:102AC000010068468DF800808DF80350FDF75EFE2A
:102AD00020460121FFF788F804B0BDE8F08100BF6F
:102AE0002DE9F0478EB0074642F20010C4F2010013
:102AF0000E4682424FF480704FF001019946144611
:102B00004FF4807808BF4FF400704FF0010AFEF7D1
:102B100049FE03200025CDE9005040F20C00C2F22E
:102B20000000394632460323CDF808A003F0C4FC68
:102B30004FF480300B900AA80A950C950D95FDF77F
:102B4000BFFE04A920460495ADF8148006950895AB
:102B50008DF824A0FDF77EFE204649460122012380
:102B6000FDF706FF20460121FDF7CAFE0EB0BDE8C5
:102B7000F08700BFF0B581B02DED048B84B00D4619
:102B800004464FF000500121FEF700FE00EE105AFF
:102B9000B8EE408AB0EE480A04F00AF89FED259A94
:102BA00040F2002680EE090AC4F2402640F22007D7
:102BB000C2F20007BDEEC00A10EE100A06EB80005C
:102BC0008030B0EE480AF86003F0F2FF80EE090AA8
:102BD0000121BDEEC00A10EE100A06EB800038613C
:102BE0000120FEF7AFFD6E463046FEF78FFB40F248
:102BF0000330C0F2001001900020C4F20200314600
:102C00000095FEF73FFB082003F0D8FCB8600020D9
:102C1000CDE9000002900220039069462046FDF7AE
:102C2000E1FF20460121FDF7FDFF04B0BDEC048B60
:102C300001B0F0BD1872313F70B590B00D4604463A
:102C40004FF4800001210126FEF77CFD42F24C008A
:102C5000C4F201004FF40061029040F2600008915C
:102C60004FF40051C2F2000009914FF480710390BB
:102C700000200A914FF40031CDE90406CDE90600A9
:102C8000CDE90B10CDE90D600F9020460195FEF7C0
:102C90008DF801A92046FEF7B5F920460121FEF77F
:102CA000EBF910B070BD00BF2DE9F04182B0804655
:102CB00040F20020C4F2402040F234040D4600F1FE
:102CC0008001C2F20004C4E90310012001210127A0
:102CD000FEF738FD6E463046FEF718FB009740F2CF
:102CE00002300027C0F20010C4F2020701903846FB
:102CF0003146FEF7C7FA082003F060FCA0603846B2
:102D0000002101220024FEF73DFB142003F056FCB5
:102D100006466020C0F2010030604FF480703082BF
:102D200040463146B560B481FEF768FF304602B0D8
:102D3000BDE8F08190ED092A90ED0A5A90ED0C3A29
:102D400032EE452A90ED0E4A32EE035A25EE015A34
:102D5000B4EE445AF1EE10FA80ED0B2A15DCB1EE18
:102D6000446AB4EE465AF1EE10FA0EDB90ED0D4ACD
:102D700020EE020A24EE011A30EE010A32EE431A66
:102D800020EE811A31EE000A09E032EE431A21EEFC
:102D9000201A20EE020A30EE010A34EE000AB5EEE7
:102DA000400AF1EE10FA80ED100A02DA9FED0C0AEB
:102DB00008E09FED0C1AB4EE410AF1EE10FA03DDC3
:102DC000B3EE040A80ED100A90ED0D1A9FED060A8D
:102DD00032EE011A80ED0C2A80ED0D1A704700BF0B
:102DE000000000000000C84200E0F944B0B582B025
:102DF00048F22820C4F2422040F24C0500F1800144
:102E0000C2F20005C5E9031020200121FEF79AFC5B
:102E10006C462046FEF77AFA4FF48060009040F24C
:102E20000130C0F20010019041F20040C4F20200F3
:102E30002146FEF727FA082003F0C0FBA860E868E7
:102E40000021016002B0B0BD024640F20040C4F271
:102E500002004FF48051FEF789BA00BF024640F2EB
:102E60000040C4F202004FF40051FEF77FBA00BFE9
:102E7000024640F20040C4F202004FF48041FEF7E7
:102E800075BA00BF024640F20040C4F202004FF49F
:102E90000041FEF76BBA00BF02460020C4F20200F8
:102EA0004FF48071FEF762BA70B582B00120012143
:102EB000FEF748FC02200121FEF744FC40F20130FD
:102EC000C0F2001040F2004401904FF48050C4F270
:102ED00002046E46009020463146FEF7D3F94FF4C7
:102EE0000050009020463146FEF7CCF94FF4804068
:102EF000009020463146FEF7C5F94FF4004000909F
:102F000020463146FEF7BEF94FF48070A4F5806587
:102F1000009028463146FEF7B5F920464FF480511F
:102F20000022FEF723FA20464FF400510122FEF75B
:102F30001DFA20464FF480410122FEF717FA204681
:102F40004FF400410122FEF711FA28464FF4807138
:102F50000122FEF70BFA02B070BD00BF70B540F25F
:102F600000450446C4F20205002600BF04FA06F03C
:102F7000C0B2C20928464FF40051FEF7F7F92846BF
:102F80004FF480510122FEF7F1F928464FF48051A9
:102F90000022FEF7EBF90136082EE7D170BD00BF25
:102FA000F0B581B040F20046C4F20206A6F5806496
:102FB000054620464FF4807100220027FEF7D6F91F
:102FC00030464FF400410022FEF7D0F905FA07F031
:102FD000C0B2C20930464FF40051FEF7C7F930467F
:102FE0004FF480510122FEF7C1F930464FF4805171
:102FF0000022FEF7BBF90137082FE7D120464FF436
:103000008071012201B0BDE8F040FEF7AFB900BF0A
:103010002DE9F04740F20047C4F20207A7F58068A7
:103020008A46814640464FF480710022FEF79EF9A1
:1030300038464FF400410122FEF798F9BAF1000F2B
:103040001FD0002419F80460002500BF06FA05F01F
:10305000C0B2C20938464FF40051FEF787F938462E
:103060004FF480510122FEF781F938464FF4805128
:103070000022FEF77BF90135082DE7D101345445D4
:10308000E0D140464FF480710122BDE8F047FEF7E1
:103090006DB900BFB0B5FFF707FFAE20FFF780FFA7
:1030A000D520FFF77DFF8020FFF77AFFA820FFF7EC
:1030B00077FF3F20FFF774FFD320FFF771FF002059
:1030C0000025FFF76DFF4020FFF76AFFA120FFF703
:1030D00067FFC820FFF764FFDA20FFF761FF1220C7
:1030E000FFF75EFF8120FFF75BFFCF20FFF758FF60
:1030F000D920FFF755FFF120FFF752FFDB20FFF744
:103100004FFF3020FFF74CFFA420FFF749FFA62018
:10311000FFF746FF8D20FFF743FF1420FFF740FF26
:10312000AF20FFF73DFF40F26404C2F200042046E6
:103130004FF4806102F07BFD45F0B000C0B2FFF7B4
:103140002FFF1020FFF72CFF0020FFF729FF20465C
:103150008021FFF75DFF0135082D04F18004EBD1DC
:10316000B0BD00BF80B540F26400C2F200004FF471
:10317000806102F05CFD80BDB0B540F264040025C2
:10318000C2F2000445F0B000C0B2FFF709FF102002
:10319000FFF706FF0020FFF703FF20468021FFF71F
:1031A00037FF0135082D04F18004EBD1B0BD00BF1D
:1031B00010B540F0B0000C46FFF7F2FE20091030C9
:1031C000FFF7EEFE04F00F00BDE81040FFF7E8BE89
:1031D000002904BF0120704702460120013902FB8B
:1031E00000F0FBD1704700BF2DE9F0474FF000051C
:1031F000B8B3DDF820C0461E4FF0000E4FF00008B7
:1032000007E000BF464608F101080FFA88F585423D
:1032100026DA32F9159034B232F914A0E1454FF0B4
:103220000007D8BF0127E2454FF00006C8BF0126BE
:103230007740E7D131F9144031F91550ACEB09066C
:10324000641B7443AAEB090694FBF6F42C449C42DD
:10325000C2BF1FFA8EF7B7FA87F74FEA571ED1E7BA
:103260007546E8B2BDE8F08770B52DED028B0646D5
:1032700008461C46154602F0CCFE41EC180B3046C1
:1032800002F0C7FE41EC110BB0EE480AF0EE680AFE
:1032900003F08EFB51EC100B9FED130B53EC102B36
:1032A00002F0F7FD9FED120B53EC102B02F07FFDA7
:1032B00002F0CDFEA542014607DAA9420FDBA1428A
:1032C0000DDC0120BDEC028B70BDA9424FF0010066
:1032D00002DAA142C8BF0020BDEC028B70BD002005
:1032E000BDEC028B70BD00BF1F85EB51B81E0940BD
:1032F00000000000008066402DE9F0470B44013BD0
:10330000904601EB517203EB5373CE0BDF0806EBD3
:10331000D20216B20122B1F1FF3FC8BF02EBD307C0
:103320003FB2BE42A8BFBDE8F0870546C0B2000963
:1033300040F2640100F1100905EBC610C2F2000171
:1033400005F00F0A0C1804E00136BE4204F18004B7
:1033500015DA7F2DF8D8002EF6D4072EF4DC46F0CF
:10336000B000C0B2FFF71CFE4846FFF719FE5046FA
:10337000FFF716FE20464146FFF74AFEE4E7BDE8A8
:10338000F08700BF2DE9F04303EB010E8E45D8BF57
:10339000BDE8F08340F2640802444FF0010CC2F231
:1033A00000080C4604E000BF013421B28E4521DD47
:1033B0008242F9DD04F00703CD170CFA03F301EBA9
:1033C00055714FEAE109DD430746064604E000BFB8
:1033D000013637B2BA42E7DDB3B27F2BF8D823B259
:1033E000002BF5D43F2BF3DC08EBC913D95D294042
:1033F000D955EDE7BDE8F08340F264014FF0000CD1
:10340000C2F200014FF0FF328B1858780132C043EE
:103410007F2A5870F8D10CF1010CBCF1080F01F1B2
:10342000800108BF7047EDE72DE9F04303EB010E83
:103430008E45D8BFBDE8F08340F2640802444FF0E7
:10344000010CC2F200080C4604E000BF013421B2B6
:103450008E4520DD8242F9DD04F007030CFA03F902
:10346000CB1701EB5371C9100746064604E000BFB5
:10347000013637B2BA42E9DDB3B27F2BF8D823B2B6
:10348000002BF5D43F2BF3DC08EBC113DD5D85EA9F
:103490000905DD55ECE7BDE8F08300BF80B582B0DB
:1034A000062B0CD0082B1AD147F66F53C0F6000339
:1034B00003EB0212A2F5007C082210230BE047F672
:1034C000353302EB4202C0F6000303EB4202A2F1E5
:1034D000C00C06220823CDF800C000F003F802B0AB
:1034E00080BD00BF2DE9F04F84B040F2640C8E46E1
:1034F000C2F2000C0392CDE901309BB30198039A0C
:1035000000EB0E09DDE902107446451801217046F2
:1035100004E000BF013420B2814523DD002AF9D048
:1035200004F0070601FA06F6C7176FEA060B029EBB
:1035300000EB57704FEAE00A374603E0013637B236
:10354000BD42E7DDB0B27F28F8D820B20028F5D41C
:103550003F28F3DC0CEBCA1010F8078008EA0B03D5
:10356000C355EBE70198BEF1000FA0F1010000EB9D
:1035700050704FEAE00001900EEB5E704FEAE00100
:1035800020F00700AEEB000001EBEE31009148BFE8
:1035900008301FFA80FA00B2C0F1080B00204FF08B
:1035A000000C06E00CF1010C01995FFA8CF08142ED
:1035B00036DB03990029F5D0009E40F2640256FAEA
:1035C0008CF3C2F2000202EBC313039D0D9A5FFA63
:1035D0008CF13418029803F1800715FB0123611C5C
:1035E00005E000BF0130013D03F10103DAD07F287F
:1035F000F8D8072C0BD893F800E007EB000818F870
:10360000809C0EFA0AF646EA090608F8806C07293B
:10361000E8D81E783A5C26FA0BF632433A54E1E7D2
:1036200004B0BDE8F08F00BF2DE9F04F81B09346A4
:10363000127872B347F6353847F66F591C468A46FA
:1036400007460020C0F60008C0F60009002611E079
:1036500002EB420108EB4101A1F1C00500B2514665
:10366000062208230095FFF73DFF0136F0B21BF854
:10367000002072B100FB0470062CE9D0082CF4D1B4
:1036800009EB0211A1F5007500B251460822102382
:10369000E8E701B0BDE8F08F2DE9F04F81B0002BD5
:1036A00054D0DDF828B01C469146884682465D42DB
:1036B000002717E0CAB2520052FA81F147F63532BC
:1036C000C0F6000202EB4101A1F1C00600B2414682
:1036D000062208230096FFF705FF0137A74205F1F0
:1036E000010533D0F84300190AD00120294600BF54
:1036F00000EB800001314A1C4FEA4000F8D100E0A5
:103700000120B9FBF0F14CF6CD40CCF6CC40A1FB4A
:103710000002D20802EB820207FB0BA0A1EB4201E0
:10372000BBF1060F41F03001C4D0BBF1080FD4D17A
:1037300047F66F52C9B2C0F6000202EB0111A1F5C3
:10374000007600B2414608221023C3E701B0BDE86D
:10375000F08F00BF2DE9F04F83B0DDF830801C46BC
:103760009246002A8146029110D4B8F1060F1ED06D
:10377000B8F1080F28D147F66F50C0F60000029943
:1037800000F1B0074846082210231AE0B8F1060FEE
:103790001CD0B8F1080F26D147F66F50C0F60000D4
:1037A000029900F1D00748460822102318E047F696
:1037B0003530C0F60000029900F142074846062263
:1037C00008230097FFF78EFE8CB95EE047F6353090
:1037D000C0F60000029900F14E0748460622082371
:1037E0000097FFF77FFECAF1000A002C4DD04CF67F
:1037F000CD4B67420025CCF6CC4B16E0CAB2520046
:1038000052FA81F147F63532C0F6000202EB41016F
:10381000A1F1C006029900B2062208230096FFF724
:1038200061FEA54207F101072FD0E843001909D036
:103830000120394600EB800001314A1C4FEA40006C
:10384000F8D100E00120BAFBF0F10135A1FB0B0239
:10385000D20802EB820205FB0890A1EB4201B8F10D
:10386000060F41F03001C9D0B8F1080FD9D147F6A1
:103870006F52C9B2C0F6000202EB0111A1F5007649
:10388000029900B208221023C8E703B0BDE8F08F08
:103890002DE9F04F81B0002B62D0DDF828B01C4636
:1038A0009146884682465D42002715E047F635324C
:1038B00001EB4101C0F6000202EB410101F18A0671
:1038C00000B24146062208230096FFF70BFE01379F
:1038D000A74205F1010543D0F843001908D00120A3
:1038E000294600BF01314A1C4FEA0010FAD100E01E
:1038F0000120B9FBF0F000F00F0107FB0BA0092934
:1039000010D8BBF1060F01F130011ED0BBF1080F3A
:10391000DDD147F66F52C0F6000202EB0111A1F5AE
:1039200000760DE0BBF1060FC0D0BBF1080FCED181
:1039300047F66F52C0F6000202EB011101F5B876AE
:1039400000B2414608221023BEE747F6353201EBAC
:103950004101C0F6000202EB4101A1F1C006AFE750
:1039600001B0BDE8F08F00BF2DE9F04F81B0002B12
:1039700046D0DDF828B01C469146884682465D4216
:10398000002717E0CAB2520052FA81F147F63532E9
:10399000C0F6000202EB4101A1F1C00600B24146AF
:1039A000062208230096FFF79DFD0137A74205F187
:1039B000010525D0F8430121001906D0284600BF93
:1039C0000130421C4FEA4101FAD1B9FBF1F107FB8A
:1039D0000BA01822BBF1060F62F35F01D2D0BBF13E
:1039E000080FE2D147F66F52C9B2C0F6000202EBEF
:1039F0000111A1F5007600B2414608221023D1E75B
:103A000001B0BDE8F08F00BF2DE9F04F81B02DED82
:103A1000028B86B0B0EE408AF0EE608A9FEDB00B6C
:103A2000994616460391DDF84880044651EC180B80
:103A300053EC102B02F0B7FA019480B1B8F1060FE5
:103A40001ED0B8F1080F28D147F66F50C0F600001D
:103A5000039900F1D0072046082210231AE0B8F19C
:103A6000060F25D0B8F1080F2FD147F66F50C0F6DA
:103A70000000039900F1B00720460822102321E03E
:103A800047F63530C0F60000039900F14E07204696
:103A9000062208230097FFF725FD8DED048B9DF886
:103AA000170080F080008DF817009DED048B0CE06E
:103AB00047F63530C0F60000039900F14207204672
:103AC000062208230097FFF70DFD57EC185B2846E8
:103AD000394602F0DBFA044602F0ACFA02460B4625
:103AE0002846394602F05DF98346B9F1000F0F46CA
:103AF0004FF0010506D0484605EB850101384FEA35
:103B00004105F9D1284602F095FA02460B4658467F
:103B1000394602F04CF941EC100B03F001F951EC7D
:103B2000100B02F0B3FA002E029059D00298C6F1A1
:103B3000000AB0FBF5F04FF0000B0519019808EBF7
:103B4000000718E0CAB2520052FA81F147F6353246
:103B5000C0F6000202EB4101A1F1C004039900B2DA
:103B6000062208230094FFF7BDFC0BF1010BB345BF
:103B70000AF1010A34D06FEA0B0080190AD0012043
:103B8000514600BF00EB800001314A1C4FEA400063
:103B9000F8D100E00120B5FBF0F14CF6CD40CCF6B9
:103BA000CC40A1FB0002D20802EB82020BFB0870A2
:103BB000A1EB4201B8F1060F41F03001C2D0B8F1DB
:103BC000080FD2D147F66F52C9B2C0F6000202EB1D
:103BD0000111A1F50074039900B208221023C1E776
:103BE000019C701CB8F1060F10FB08400DD0B8F115
:103BF000080F17D147F66F51C0F6000101F1E00739
:103C0000039900B20822102309E047F63531C0F6C7
:103C1000000101F15407039900B20622082300971E
:103C2000FFF760FCB9F1000F54D0B01C47F6353AED
:103C300047F66F5B10FB0845C9F100060027C0F688
:103C4000000AC0F6000B13E0CAB2520052FA81F12A
:103C50000AEB4101A1F1C004039900B20622082336
:103C60000094FFF73FFC01374F4506F1010631D0C4
:103C7000F84310EB090009D00120314600EB800029
:103C800001314A1C4FEA4000F8D100E001200299BE
:103C9000B8F1060FB1FBF0F14CF6CD40CCF6CC40BC
:103CA000A1FB00024FEAD20202EB820207FB08509E
:103CB000A1EB420141F03001C6D0B8F1080FD2D1DA
:103CC000C9B20BEB0111A1F50074039900B20822EF
:103CD0001023C5E706B0BDEC028B01B0BDE8F08F44
:103CE00000000000000000002DE9F04F85B0934671
:103CF00003919BF80010002200298DF81220ADF8E6
:103D0000102045D0103847F6B417029000250DF169
:103D10001009C0F600072324002005E0013001351A
:103D2000E9B21BF8011099B3002809F80010F5D08A
:103D30003878B8B13846494601F084FF90B14FF069
:103D4000000800BF08F101085FFA88FA0AFB04F0D6
:103D5000385C48B11AFB0470494601F073FF002833
:103D6000F0D101E04FF0000AE8B2082101EBC000F9
:103D7000029920F0080008441AFB0471CE1C039934
:103D800000B2102210230096FFF7ACFB0020C6E71C
:103D900005B0BDE8F08F00BF2DE9F04FC3B00DF1C5
:103DA0000C0A14468B4606464CAA50461946029207
:103DB00002F018FC9DF80C0058B347F6353847F66A
:103DC0006F590021C0F60008C0F60009002711E075
:103DD00000EB400008EB4000A0F1C00508B25946D6
:103DE000062208230095FFF77DFB0137F9B21AF888
:103DF000010070B101FB0461062CE9D0082CF4D15C
:103E000009EB0010A0F5007508B2594608221023EE
:103E1000E8E743B0BDE8F08F7F2898BF3F2900D97D
:103E20007047C1F3027301F00702194409B26FF041
:103E3000700303EA011140F26403C2F20003194463
:103E40004FF0010C0B5C0CFA02F21A430A54704753
:103E50007F2898BF3F2912D801EB51726FF0700391
:103E600003EA021240F26403C2F200031A44105C37
:103E700001F00701C840C0071CBF012070470020A7
:103E8000704700BF2DE9F04F85B0994227D1134606
:103E90009042B8BF0346C8BF024601F007000127A1
:103EA00007FA00F0C1F302770F443FB240F2640614
:103EB000FF10C2F2000606EBC71712B205E000BF02
:103EC00001331BB2934200F374813F29F8D89EB2AC
:103ED0007F2EF5D81EB2BD5D0543BD55F0E790427B
:103EE0002AD11A469942B8BF0A46C8BF0B4640F2CB
:103EF00064064FF0010C6FF07007C2F200061BB2AF
:103F000005E000BF511C0AB29A4200F352817F289B
:103F1000F8D895B23F2DF5D815B2C5F30275154402
:103F20002DB207EA0515354402F00704295C0CFAA6
:103F300004F421432954E5E702DD94469E4603E05C
:103F400084468E461046194673460C468E45C4BFBD
:103F50005B42644222B21DB2521BA0EB0C05AA4286
:103F6000CDE9015202DD1A46A14603E062469C46B5
:103F700081462046DDE901530024AB424FF00005A5
:103F8000C8BF01258E45C8BF01242C40012C0394D5
:103F900009D15542AEB23F2E41D81FFA8CF6802E81
:103FA000664624D33BE08E4509DD95B27F2D36D899
:103FB000CCF10005AEB2402E164618D32FE0DDE955
:103FC000014395B2A34209DD039C3F2D27D81FFA78
:103FD0008CF5802D6646154609D320E0039C7F2D85
:103FE0001DD81FFA8CF53F2D1646654617D82FB2FF
:103FF000C7F3027705F007033D442DB26FF0700759
:1040000007EA051540F26407C2F2000736B23D44E4
:104010004FF00108AF5D08FA03F33B43AB550FFACD
:1040200082F80FFA89F34345049340F3C280A9EB69
:104030000202A0EB0C0AAAEB0203C2EB4A065800EC
:104040004FF6C0754FF00109CDF800E01EE00FFA01
:104050008CF2C2F30272624412B26FF0700404EA8E
:10406000021240F26404C2F20004224442440CF002
:104070000703547809FA03F32343039C537000BFEA
:10408000049A3E445A45D84600F0938033B2002B40
:104090006FEA060307469BB208F1010B48BF4FEADF
:1040A0004A070CEBD33C6CB308EA0503AB42E7D1FB
:1040B0001FFA8CF37F2BE3D86FEA08030FFA83F91A
:1040C000C9F3027423441BB26FF0700404EA0313B3
:1040D00040F26404C2F200040FFA8CFE072223446B
:1040E00022EA08024FF0010913F80E4009FA02F221
:1040F0002243039C03F80E20DDF800E04FF6C07564
:10410000BEE700BF8E451FDD4FF680721BEA020F2F
:10411000B6D1CCF100039AB23F2AB1D81AB2C2F399
:1041200002721A4403F0070412B26FF0700303EA3C
:10413000021240F26403C2F200031A44424453786C
:1041400009FA04F4234398E7DDE901329A4224DDB9
:104150001FFA8CF27F2A93D81BEA050290D10FFA3E
:104160008BF4C4F302745C4424B26FF0700303EA6E
:10417000041440F26403C2F200030FFA8CF21C44F0
:104180000BF0070E14F8028009FA0EF343EA080355
:10419000DDF800E0A354039C72E74FF680721BEA3F
:1041A000020F7FF46DAF1FFA8CF23F2A7FF64FAFFC
:1041B00066E705B0BDE8F08F2DE9F043079F02EBFD
:1041C000000E8FB3864540F3AC8040F264090B4487
:1041D0004FF0010C6FF07008C2F20009024604E0D3
:1041E000013210B2864540F39C808B42F8DD0E46CA
:1041F00004E000BF013634B2A342F1DD97B27F2F55
:10420000F8D8B7B23F2FF5D837B2C7F302773744A3
:104210003FB208EA07174F4406F007043D5C0CFA6A
:1042200004F42C433C54E5E786453ADDCD18013DC6
:1042300001F0070201242EB205F0070704FA02FC80
:10424000C1F3027204FA07F8C6F302740A442C445C
:1042500012B224B240F26407D210E610C2F2000794
:1042600007EBC219ADB207EBC6160246074603E0DC
:1042700001373AB2964514DD3F2908D8BCB27F2CED
:1042800005D819F8024044EA0C0409F802403F2D11
:10429000EED8BCB27F2CEBD8B45C44EA0804B4542A
:1042A000E6E70B448B42D8BFBDE8F083AEF10105D1
:1042B00040F264082AB24FF0010C6FF0700EC2F2A7
:1042C0000008ADB204E000BF01310CB2A34228DD0A
:1042D0007F2811D88EB23F2E0ED80EB2C6F30276CA
:1042E0000E4436B20EEA0616464401F00707345C67
:1042F0000CFA07F73C4334547F2DE5D88CB23F2CA1
:10430000E2D80CB2C4F302740C4424B20EEA0414D2
:10431000444401F00706A75C0CFA06F63E43A65497
:10432000D2E7BDE8F08300BF2DE9F04F87B0074624
:104330001298DDE91048994616460D460028ADF85A
:104340001670ADF81820ADF81A40ADF81010ADF8A1
:104350001230ADF8148000F09080BE423846B8BFED
:104360003046A042A8BF2046A9452946B8BF4946C5
:104370004145A8BF4146BE420191C8BF3746A7424A
:10438000D8BF2746A945C8BF4D464545D8BF454675
:1043900029B204AA039139B20DF11608009105E083
:1043A00002980099013000B2884263DC0290DDF887
:1043B00004B007B207E000BF0BF101000FFA80FB69
:1043C00003988345ECDC0FFA8BF64FF0020E0025C4
:1043D000002003E00EF10105032D2BD07446AE46FC
:1043E00032F915C02504ED13555FB4454FF00009AF
:1043F000D8BF4FF00109B5424FF0000AC8BF4FF0D7
:10440000010A99EA0A0FE5D124B238F9144038F9C3
:104410001E30A6EB0C01E41A6143A5EB0C0591FBE1
:10442000F5F11944B942C2BF80B2B0FA80F0400938
:10443000D0E700BF0006BFD0029880B27F28BBD86B
:104440001FFA8BF03F28B7D8C6F30271594409B25E
:104450006FF0700303EA011140F26403C2F200033B
:1044600019440BF00700CB5D012606FA00F0184353
:10447000C855A1E707B0BDE8F08F38462946324657
:104480004B46FFF7FFFC3846294622464346FFF7D6
:10449000F9FC304649462246434607B0BDE8F04F96
:1044A000FFF7F0BC2DE9F04F8CB0944683467F288F
:1044B00002931CD80CEB010082B23F2A17D802B23B
:1044C000C2F3027200F00703104400B26FF07002F2
:1044D00002EA001040F26402C2F200021044012716
:1044E00010F80B2007FA03F31A4300F80B20BBF176
:1044F0007F0F1CD8A1EB0C0082B23F2A17D802B262
:10450000C2F3027200F00703104400B26FF07002B1
:1045100002EA001040F26402C2F2000210440127D5
:1045200010F80B2007FA03F31A4300F80B203F2979
:104530001AD80CEB0B0082B27F2A15D8C1F3027790
:104540000F443FB26FF0700606EA071740F26406A8
:10455000C2F2000600B2374401F0070201233E5CBC
:1045600003FA02F232433A543F291AD8ABEB0C005B
:1045700082B27F2A15D8C1F302770F443FB26FF0A1
:10458000700606EA071740F26406C2F2000600B29F
:10459000374401F0070201233E5C03FA02F2324382
:1045A0003A54029848B3CCF10000604525DA40F255
:1045B000640701236FF07002C2F2000704E000BF3D
:1045C000013006B2664518DABBF17F0FF8D84618FD
:1045D000B5B23F2DF4D835B2C5F3027506F0070425
:1045E0002E4436B202EA06163E4416F80B5003FA81
:1045F00004F4254306F80B50E2E7BCF1000F00F08D
:10460000CB81CCF101004FF0000E6FF07009CDF8B6
:1046100004B00DE00798059A00B2DDF818E000EB51
:104620004200DDF804B00130C446C64580F2B481D2
:104630000EF1010807900004ACF1010318B24246E4
:104640004CBF6346121A08EB0B000A9080B2059229
:104650007F2803EB01020B9018D894B23F2C15D899
:1046600015B20A98C5F30275154404B22DB240F292
:10467000640009EA0515C2F20000054402F00706CD
:104680002F5D012000FA06F63E432E5508EB010788
:10469000089218B2BAB23F2A00EB0B0A049219D85A
:1046A0001FFA8AF37F2B15D83CB2C4F302743C4442
:1046B00024B240F2640209EA0414C2F200020FFAC2
:1046C0008AF3144407F00705E65C012202FA05F5B7
:1046D0003543E554ABEB08021FFA82FC0992BCF1AA
:1046E0007F0F0246A1EB0003039718D89CB23F2C22
:1046F00015D81DB20998C5F302751D4404B22DB238
:1047000040F2640009EA0515C2F20000054403F016
:104710000706285D012707FA06F630432855A1EB66
:1047200008091FFA89F43F2CABEB020B1FD81FFAC4
:104730008BF07F281BD80FFA89F6C6F3027609F0B2
:1047400007004E44069036B26FF0700000EA06167D
:1047500040F26400C2F200000FFA8BF50644705D6F
:10476000069F00900120B840009F384370550B9879
:104770007F281CD898B23F2819D81EB2C6F30276FB
:1047800003F0070733441BB26FF070050A9805EA7F
:10479000031340F26405C2F2000500B22B441D5C15
:1047A0000695012505FA07F6069D2E431E543F2C5B
:1047B0001CD81FFA8AF07F2818D80FFA89F3C3F3A0
:1047C00002734B441BB26FF0700505EA031340F20D
:1047D0006405C2F200050FFA8AF02B4409F00704C1
:1047E0001E5C012505FA04F434431C54BCF17F0F10
:1047F0006FF07009CDF818801AD8089880B23F2859
:1048000016D8089D09982BB2C3F302732B4405F008
:1048100007041BB240F2640509EA0313C2F2000563
:1048200000B22B441E5C012505FA04F434431C54E9
:10483000049890463F281AD81FFA8BF07F2816D884
:10484000039A0FFA8BF013B2C3F30273134402F00E
:1048500007041BB240F2640209EA0313C2F2000229
:1048600013441E5C012202FA04F434431C540298DF
:1048700000283FF4CFAEC8F1000000B280454246A8
:1048800042DD0A9A13B2099A14B203E0013000B271
:10489000404539DA0B9A46187F2A19D8B2B23F2A16
:1048A00016D832B2C2F30272324412B240F2640538
:1048B00009EA0212C2F200052A4406F00707D55C95
:1048C0004FF0010909FA07F76FF070093D43D5541D
:1048D000BCF17F0FDAD8B2B23F2AD7D832B2C2F3D6
:1048E0000272324406F0070512B240F2640609EA89
:1048F0000212C2F200063244165D012707FA05F5DE
:1049000035431555C2E700BF0FFA8BFC0FFA8AF347
:104910006FEA0E0405E000BF013422B29645FFF6AF
:1049200079AE1FFA8BF27F2A04EB010618D8B2B2D7
:104930003F2A15D832B2C2F30272324412B240F2A8
:10494000640009EA0212C2F20000024406F00707FE
:1049500012F80C50012000FA07F72F4302F80C70F0
:104960001FFA8AF27F2AD7D8B2B23F2AD4D832B2FD
:10497000C2F30272324412B240F2640009EA021237
:10498000C2F20000024406F00707D65C012000FADC
:1049900007F73743D754BFE70CB0BDE8F08F00BF2F
:1049A0002DE9F04F81B02DED028B8EB0814603FBD7
:1049B00003F01F4616468B46099001F02AFB054678
:1049C00006FB06F00C46089001F023FBBA467F4236
:1049D00006463846884601F01CFB9FEDB10B53ECB0
:1049E000102BCDE9012301F03BF902460B4630467E
:1049F00041460A96CDF81C8001F0D9F92A46234693
:104A00000495039401F02CF901F059FB80461A98A3
:104A1000002818BFBAF1000F40F00E830AEB0B001C
:104A200081B2B9F1800F4FF0000238BF0122402956
:104A30004FF0000138BF01210A40012A4FF0000366
:104A400017D101B2C1F30271014409B26FF07005D0
:104A500005EA011140F26405C2F20005294400F0A4
:104A60000707012611F8095006FA07F72F4301F846
:104A70000970ABEB0A01B9F1800F4FF000078EB25D
:104A800038BF0127402E38BF01233B40012B18D1EE
:104A90000FB2C7F302770F443FB26FF0700505EA1B
:104AA000071740F26405C2F200052F4401F0070623
:104AB0004FF0010C17F809500CFA06F62E4307F8D0
:104AC0000960099DBAB102B2C2F3027200F0070791
:104AD000104400B26FF0700202EA001040F264026B
:104AE000C2F200021044012610F8092006FA07F766
:104AF0003A4300F80920BBB108B2C0F30270084481
:104B000001F0070200B26FF0700101EA001040F2FC
:104B10006401C2F200010844012310F8091003FAED
:104B200002F2114300F809102846CDF8309001F048
:104B300070FA074650460E46544601F07BFA9FED48
:104B40005A0B53EC102BCDE9053201F089F80A9A83
:104B5000079B01F02CF93A46334601F009FA002888
:104B600040F0268108EE108A4FF000084FF0010A4D
:104B70006FF07009274600200D9025E00B9800EE9D
:104B8000100A0D98B8EEC00A0FFA80F808F101007B
:104B9000684338EE008A01F03CFA27B28246384674
:104BA0000E4601F036FADDE9053201F059F80A9AAD
:104BB000079B01F0FCF85246334601F00FFA00283B
:104BC0004FF0010A00F0F780032000EB4800B5EE3B
:104BD000408AF1EE10FA00FB05F209DD0220089987
:104BE000A0EB470000FB0122A4F1010C0B9201E0B5
:104BF0000B92A4461A9800280D9800F101000D9020
:104C000056D0CCF1000002B20FFA8CF89045614604
:104C10004EDDDDE90C010B18461A0FFA83FE30B2A7
:104C200004E000BF511C0AB2424541DA9DB27F2D1B
:104C300002EB0B0517D8ACB23F2C14D82CB2C4F33E
:104C400002742C4424B240F2640109EA0414C2F252
:104C500000010C4405F0070714F80E100AFA07F7D4
:104C6000394304F80E10B1B27F29DBD8A9B23F292D
:104C7000D8D829B2C1F30271294405F0070409B25A
:104C800040F2640509EA0111C2F2000529440D5CF5
:104C90000AFA04F42C430C54C4E700BF00BF00BF61
:104CA000000000000000E03F000000000000E0BF46
:104CB000DDE90C01644601EB000E1FFA8EFABAF131
:104CC0007F0F0CEB0B0318D898B23F2815D81FB2F2
:104CD000C7F302771F443FB240F2640109EA0717A5
:104CE000C2F200010FFA8EF00F4403F007063D5C9C
:104CF000012101FA06F62E433E54DDE90C01ABEB2F
:104D00000407401A86B27F2E18D8BDB23F2D15D8A1
:104D10003CB2C4F302743C4424B240F2640109EA98
:104D20000414C2F2000105B20C4407F00708615DEB
:104D3000012202FA08F21143615564467F2E17D80A
:104D400099B23F2914D819B2C1F30271194403F082
:104D5000070209B240F2640309EA0111C2F200033A
:104D600000B219440B5C012606FA02F21A430A54F7
:104D7000099DBAF17F0F3FF601AFB8B23F283FF669
:104D8000FDAE39B2C1F30271394409B240F2640395
:104D900009EA0111C2F200030FFA8EF0194407F07C
:104DA00007020B5C012707FA02F21A430A54E5E6F0
:104DB00000200D9027460FFA84FABAF1010FC0F2D5
:104DC00035810D9800B201F024F9DDE9012300F0EE
:104DD00047FFDDE9033206460C4600F0E8FFCDE967
:104DE0000A10781E089F00FB07F1484301F011F9F3
:104DF00080468946DDE90A103246234600F0D7FF97
:104E000042464B4600F02CFF064605FB07F00C46D9
:104E100001F0FFF802460B463046214600F0C1FF84
:104E200001F04DF900EE100A6FF070090BE000BFC1
:104E30000A9801EE100A0B98B8EEC11A30EE010A7A
:104E4000012840F3F380B5EE400AF1EE10FA07DDD9
:104E500003200899A0EB4A0048430A900FE000BFE6
:104E60000D9B022118B201EB40000321089AA1EB2F
:104E70004A01514300FB051001330A900D931A9823
:104E8000CDF82CA00028AAF1010A4FD00B98C0F150
:104E9000010528B2824549DDDDE90C1000EB010E69
:104EA0000F1A0FFA8EF839B204E000BF013528B2AC
:104EB00082453BDD1FFA8EF27F2A05EB0B021AD8E2
:104EC0001FFA82FCBCF13F0F15D814B2C4F3027470
:104ED000144424B240F2640009EA0414C2F200004F
:104EE000044402F0070614F80800012303FA06F64A
:104EF000304304F80800B8B27F28D7D890B23F28D2
:104F0000D4D810B2C0F30270104402F0070600B209
:104F100040F2640209EA0010C2F200021044425C4E
:104F2000012303FA06F632434254BFE70AEB0B03B0
:104F3000DDE90C2099B23F2900EB020819D81FFACD
:104F400088F07F2815D81AB2C2F302721A4412B23E
:104F500040F2640609EA0212C2F200060FFA88F073
:104F6000324403F00707165C012505FA07F73743BB
:104F70001754ABEB0A00DDE90C6287B23F2FA6EBBA
:104F8000020219D896B27F2E16D804B2C4F3027466
:104F9000044424B240F2640509EA0414C2F2000594
:104FA00016B22C4400F0070C14F806E0012505FAAF
:104FB0000CF545EA0E05A555099D3F2917D891B274
:104FC0007F2914D811B21AB2C2F302721A4403F044
:104FD000070612B240F2640309EA0212C2F20003A9
:104FE0001A44535C012404FA06F6334353543F2F0A
:104FF0003FF61EAF1FFA88F17F293FF619AF02B2C4
:10500000C2F3027200F00703104400B240F26402DF
:1050100009EA0010C2F200020FFA88F11044425C63
:10502000012707FA03F31A43425401E70EB0BDEC1F
:10503000028B01B0BDE8F08F01206FF0700104E039
:1050400001373AB25245BFF6E9ACB9F17F0FF7D854
:1050500007EB0B0293B23F2BF2D813B2C3F30273E8
:1050600002F007061A4412B240F2640301EA021287
:10507000C2F200031A4412F8093000FA06F633436C
:1050800002F8093012F80930334302F80930D7E743
:105090002DE9F04F81B02DED0A8B8CB0209E06904B
:1050A00010461C461546089100F0C4FF41EC180B51
:1050B0009FEDCF1BB0EE480AF0EE680A01F078FCD5
:1050C00051EC100B9FEDCC0B53EC102BCDE90A32B9
:1050D00000F0DFFE9FEDCA0B53EC102B09929B46AC
:1050E00000F065FE00F0B3FFB44202DAA04202DA3B
:1050F00023E0A04202DA209988421EDC06987F282D
:105100001BD80898284481B23F2916D801B2C1F3B0
:10511000027100F00702084400B26FF0700101EA6A
:10512000001040F26401C2F20001069F084401230E
:10513000C15D03FA02F21143C155C5F100084046B2
:1051400000F067FF41EC190B9FEDA91BB0EE490A77
:10515000F0EE690A01F02CFCDDE90A3251EC100B8B
:1051600000F097FE099A5B4600F021FE00F06FFF09
:1051700020998C4202DAA04202DA23E0A04202DA4D
:10518000209988421EDC06987F281BD80898401B6F
:1051900081B23F2916D801B2C1F3027100F00702B3
:1051A000084400B26FF0700101EA001040F264019F
:1051B000C2F20001069F08440123C15D03FA02F216
:1051C0001143C1559FED8A0BB0EE481AF0EE681AF4
:1051D00001F0EEFBDDE90A3251EC100B00F059FE54
:1051E000099A5B4600F0E3FD00F031FF20998C4204
:1051F00002DAA04202DA23E0A04202DA20998842D1
:105200001EDC08983F281BD80698284481B27F29C5
:1052100016D8089F00B2C7F302733B4407F007019A
:105220001BB26FF0700707EA031340F26407C2F283
:1052300000073B4401221F5C02FA01F13943195473
:105240009FED6B0BB0EE491AF0EE691A01F0B0FB5E
:10525000DDE90A3251EC100B00F01BFE099A5B46A7
:1052600000F0A5FD00F0F3FE20998C4202DAA04286
:1052700002DA23E0A04202DA209988421EDC089874
:105280003F281BD80698401B81B27F2916D8089F5B
:1052900000B2C7F302733B4407F007011BB26FF083
:1052A000700707EA031340F26407C2F200073B44A9
:1052B00001221F5C02FA01F1394319542198002898
:1052C0004ED0A8454CDA9FED4A8B40F264074FF070
:1052D000010A6FF07006C2F2000705E008F101084C
:1052E0000FFA88F0A8423BDA0FFA88F000F091FE3E
:1052F00041EC100BB0EE481AF0EE681A01F058FBC2
:10530000DDE90A3251EC100B00F0C3FD099A5B464F
:1053100000F04DFD00F09BFE20998C4202DAA04285
:1053200002DADBE7A04202DA20998842D6DC06984E
:105330007F28D3D80898404481B23F29CED801B203
:10534000C1F3027100F00702084400B206EA00103F
:10535000069B3844C15C0AFA02F21143C154BDE70E
:10536000002D00F09783C5F101004FF000090BE01C
:105370000298019900B2079DDDF8149000EB4100FE
:105380000130A94580F2868302900004A5F1010056
:1053900009F1010601B248BF284605B2304658BFA0
:1053A000401A0190284600F034FE41EC180B30B250
:1053B00000F02FFE41EC1A0BB0EE480AB0EE4A1A8C
:1053C000F0EE680AF0EE6A1A01F0F2FADDE90A324C
:1053D00051EC100B00F05DFD099A5B4600F0E7FC14
:1053E00000F035FE20998C420EDAA0420EDA31E050
:1053F00000000000000000001F85EB51B81E0940AE
:105400000000000000806640A04202DA2099884235
:1054100020DC0698304481B27F291BD808992944A2
:105420008AB23F2A16D80AB2C2F3027201F0070309
:10543000114409B26FF0700202EA011140F26402F5
:10544000C2F2000200B211440A5C012707FA03F31A
:105450001A430A54B0EE4A0AB0EE481AF0EE6A0A4D
:10546000F0EE681A01F0A4FADDE90A3251EC100BF3
:1054700000F00FFD099A5B4600F099FC00F0E7FD93
:1054800020998C4202DAA04202DA25E0A04202DA38
:105490002099884220DC0898304481B23F291BD8EB
:1054A000069929448AB27F2A16D802B2C2F3027240
:1054B00000F00703104400B26FF0700202EA00101F
:1054C00040F26402C2F2000209B21044425C0127B9
:1054D00007FA03F31A43425468420FFA80F8404631
:1054E0006FEA090A00F095FD41EC190B0FFA8AF0FA
:1054F00000F08FFD41EC1B0BB0EE490AB0EE4B1AE9
:10550000F0EE690AF0EE6B1A01F052FADDE90A32A8
:1055100051EC100B00F0BDFC099A5B4600F047FC13
:1055200000F095FD20998C4202DAA04202DA25E0D3
:10553000A04202DA2099884220DC0698801B81B2C2
:105540007F291BD80899491B8AB23F2A16D80AB26C
:10555000C2F3027201F00703114409B26FF0700246
:1055600002EA011140F26402C2F2000200B21144E8
:105570000A5C012707FA03F31A430A54B0EE4B0AF8
:10558000B0EE491AF0EE6B0AF0EE691A01F010FA6B
:10559000DDE90A3251EC100B00F07BFC099A5B4606
:1055A00000F005FC00F053FD20998C4202DAA04285
:1055B00002DA25E0A04202DA2099884220DC08982D
:1055C000801B81B23F291BD80699491B8AB27F2ACA
:1055D00016D802B2C2F3027200F00703104400B200
:1055E0006FF0700202EA001040F26402C2F20002A0
:1055F00009B21044425C012707FA03F31A434254EC
:10560000B0EE490AB0EE4A1AF0EE690AF0EE6A1AF4
:1056100001F0CEF9DDE90A3251EC100B00F039FC53
:10562000099A5B4600F0C3FB00F011FD20998C4203
:1056300002DAA04202DA25E0A04202DA209988428A
:1056400020DC0698304481B27F291BD80899491B79
:105650008AB23F2A16D80AB2C2F3027201F00703D7
:10566000114409B26FF0700202EA011140F26402C3
:10567000C2F2000200B211440A5C012707FA03F3E8
:105680001A430A54B0EE4B0AB0EE481AF0EE6B0A19
:10569000F0EE681A01F08CF9DDE90A3251EC100BDA
:1056A00000F0F7FB099A5B4600F081FB00F0CFFCAD
:1056B00020998C4202DAA04202DA25E0A04202DA06
:1056C0002099884220DC0898801B81B23F291BD892
:1056D000069929448AB27F2A16D802B2C2F302720E
:1056E00000F00703104400B26FF0700202EA0010ED
:1056F00040F26402C2F2000209B21044425C012787
:1057000007FA03F31A434254B0EE480AB0EE4B1ABC
:10571000F0EE680AF0EE6B1A01F04AF9DDE90A32A0
:1057200051EC100B00F0B5FB099A5B4600F03FFB13
:1057300000F08DFC20998C4202DAA04202DA25E0CA
:10574000A04202DA2099884220DC0698801B81B2B0
:105750007F291BD8089929448AB23F2A16D80AB251
:10576000C2F3027201F00703114409B26FF0700234
:1057700002EA011140F26402C2F2000200B21144D6
:105780000A5C012707FA03F31A430A54B0EE4A0AE7
:10579000B0EE491AF0EE6A0AF0EE691A059601F0C9
:1057A00007F9DDE90A3251EC100B00F072FB099A9F
:1057B0005B4600F0FCFA00F04AFC20998C4203DAC8
:1057C000A04203DA27E000BFA04202DA2099884213
:1057D00021DC08980599084481B23F291BD8069915
:1057E000491B8AB27F2A16D802B2C2F3027200F0B5
:1057F0000703104400B26FF0700202EA001040F29A
:105800006402C2F2000209B21044425C012707FAA6
:1058100003F31A4342542198079500283FF4A8AD9A
:105820000798404540F39C80DDE905100D18461AA5
:105830002AB230B20492039008E000BF08F10100E0
:105840000FFA80F80798804580F28A800FFA88F076
:1058500000F0DFFB41EC1C0BB0EE4A1AB0EE4C0A34
:10586000F0EE6C0AF0EE6A1A01F0A2F8DDE90A32F5
:1058700051EC100B00F00DFB099A5B4600F097FA13
:1058800000F0E5FB20998C4202DAA04202DA23E024
:10589000A04202DA209988421EDCA8B27F281BD8D9
:1058A0000898404481B23F2916D801B2C1F3027171
:1058B00000F00702084400B26FF0700101EA001026
:1058C00040F26401C2F20001049F0844C15D01235B
:1058D00003FA02F21143C155B0EE4C0AB0EE4B1A76
:1058E000F0EE6C0AF0EE6B1A01F062F8DDE90A32B4
:1058F00051EC100B00F0CDFA099A5B4600F057FA14
:1059000000F0A5FB20998C4202DAA04202DA95E76A
:10591000A04202DA2099884290DCB0B27F283FF69C
:105920008DAF0898404481B23F293FF687AF01B25E
:10593000C1F3027100F00702084400B26FF0700179
:1059400001EA001040F26401C2F20001039F084422
:10595000C15D012303FA02F21143C1556EE700BF96
:10596000DDE906100F1A46180FFA87F835B206E07F
:105970000AF1010A0FFA8AF08145FFF6F9AC0FFA35
:105980008AF000F046FB41EC1A0BB0EE491AB0EE7B
:105990004A0AF0EE6A0AF0EE691A01F009F8DDE948
:1059A0000A3251EC100B00F074FA099A5B4600F0D1
:1059B000FEF900F04CFB20998C4203DAA04203DA96
:1059C00025E000BFA04202DA209988421FDCB8B26D
:1059D0007F281CD80898504481B23F2917D801B2BB
:1059E000C1F3027100F00702084400B26FF07001C9
:1059F00001EA001040F26401C2F20001084410F80C
:105A00000810012303FA02F2114300F80810B0EE67
:105A10004A0AB0EE481AF0EE6A0AF0EE681A00F090
:105A2000C7FFDDE90A3251EC100B00F032FA099A97
:105A30005B4600F0BCF900F00AFB20998C4203DAC7
:105A4000A04203DA94E700BFA04202DA209988421C
:105A50008EDCB0B27F283FF68BAF0898504481B2FD
:105A60003F293FF685AF01B2C1F3027100F0070292
:105A7000084400B26FF0700101EA001040F26401C6
:105A8000C2F200010844415D012303FA02F211430E
:105A900041556DE70CB0BDEC0A8B01B0BDE8F08F4D
:105AA00070B540F20044C4F20204054620464FF4AB
:105AB0008071FBF759FC002611E000BF2046102141
:105AC000FBF752FC20464021FBF74EFC20464021CC
:105AD000FBF748FC6D080B2E06F1010606D2E8071D
